{"contracts/Mixer.sol":{"Mixer":{"abi":[{"inputs":[],"stateMutability":"nonpayable","type":"constructor"},{"inputs":[],"name":"InvalidProof","type":"error"},{"anonymous":false,"inputs":[{"indexed":false,"internalType":"uint256","name":"noteIndex","type":"uint256"},{"indexed":false,"internalType":"uint256","name":"secretValueHash","type":"uint256"}],"name":"Deposit","type":"event"},{"inputs":[{"internalType":"uint256","name":"secretValueHash","type":"uint256"}],"name":"deposit","outputs":[],"stateMutability":"payable","type":"function"},{"inputs":[],"name":"getNotesRoot","outputs":[{"internalType":"uint256","name":"","type":"uint256"}],"stateMutability":"view","type":"function"},{"inputs":[{"internalType":"uint256[2]","name":"_pA","type":"uint256[2]"},{"internalType":"uint256[2][2]","name":"_pB","type":"uint256[2][2]"},{"internalType":"uint256[2]","name":"_pC","type":"uint256[2]"},{"internalType":"uint256","name":"nullifier","type":"uint256"}],"name":"withdraw","outputs":[],"stateMutability":"nonpayable","type":"function"}],"evm":{"bytecode":{"linkReferences":{"contracts/LeanIMT.sol":{"LeanIMT":[{"length":20,"start":699},{"length":20,"start":1045}]},"poseidon-solidity/PoseidonT3.sol":{"PoseidonT3":[{"length":20,"start":901}]}},"object":"6080604052348015600f57600080fd5b5060006005819055506040516022906082565b604051809103906000f080158015603d573d6000803e3d6000fd5b50600660006101000a81548173ffffffffffffffffffffffffffffffffffffffff021916908373ffffffffffffffffffffffffffffffffffffffff160217905550608f565b61065b80610b2083390190565b610a828061009e6000396000f3fe6080604052600436106100345760003560e01c80630343166c14610039578063aebad2e714610062578063b6b55f251461008d575b600080fd5b34801561004557600080fd5b50610060600480360381019061005b91906104ce565b6100a9565b005b34801561006e57600080fd5b50610077610219565b6040516100849190610546565b60405180910390f35b6100a760048036038101906100a29190610561565b610299565b005b6000600660009054906101000a900473ffffffffffffffffffffffffffffffffffffffff1673ffffffffffffffffffffffffffffffffffffffff1663f5c9d69e86868660405180604001604052806100ff610219565b8152602001888152506040518563ffffffff1660e01b81526004016101279493929190610711565b602060405180830381865afa158015610144573d6000803e3d6000fd5b505050506040513d601f19601f820116820180604052508101906101689190610790565b9050806101a1576040517f09bde33900000000000000000000000000000000000000000000000000000000815260040160405180910390fd5b3373ffffffffffffffffffffffffffffffffffffffff166706f05b59d3b200006040516101cd906107ee565b60006040518083038185875af1925050503d806000811461020a576040519150601f19603f3d011682016040523d82523d6000602084013e61020f565b606091505b5050505050505050565b600073__$a5a2913360da49dd4fe7859d90339656a4$__63f47cbc3a60006040518263ffffffff1660e01b8152600401610253919061080a565b602060405180830381865af4158015610270573d6000803e3d6000fd5b505050506040513d601f19601f82011682018060405250810190610294919061083a565b905090565b6706f05b59d3b2000034146102e3576040517f08c379a00000000000000000000000000000000000000000000000000000000081526004016102da906108c4565b60405180910390fd5b600073__$75f79a42d9bcbdbb69ad79ebd80f556f39$__63561558fe60405180604001604052806005548152602001858152506040518263ffffffff1660e01b8152600401610332919061096d565b602060405180830381865af415801561034f573d6000803e3d6000fd5b505050506040513d601f19601f82011682018060405250810190610373919061083a565b905073__$a5a2913360da49dd4fe7859d90339656a4$__632f8549716000836040518363ffffffff1660e01b81526004016103af929190610997565b602060405180830381865af41580156103cc573d6000803e3d6000fd5b505050506040513d601f19601f820116820180604052508101906103f0919061083a565b507fa3af609bf46297028ce551832669030f9effef2b02606d02cbbcc40fe6b47c55600554836040516104249291906109c0565b60405180910390a160016005600082825461043f9190610a18565b925050819055505050565b600080fd5b600080fd5b6000819050826020600202820111156104705761046f61044f565b5b92915050565b6000819050826040600202820111156104925761049161044f565b5b92915050565b6000819050919050565b6104ab81610498565b81146104b657600080fd5b50565b6000813590506104c8816104a2565b92915050565b60008060008061012085870312156104e9576104e861044a565b5b60006104f787828801610454565b945050604061050887828801610476565b93505060c061051987828801610454565b92505061010061052b878288016104b9565b91505092959194509250565b61054081610498565b82525050565b600060208201905061055b6000830184610537565b92915050565b6000602082840312156105775761057661044a565b5b6000610585848285016104b9565b91505092915050565b82818337505050565b6105a36040838361058e565b5050565b600060029050919050565b600081905092915050565b6000819050919050565b6105d36040838361058e565b5050565b60006105e383836105c7565b60408301905092915050565b600082905092915050565b6000604082019050919050565b610610816105a7565b61061a81846105b2565b9250610625826105bd565b8060005b8381101561065e5761063b82846105ef565b61064587826105d7565b9650610650836105fa565b925050600181019050610629565b505050505050565b600060029050919050565b600081905092915050565b6000819050919050565b61068f81610498565b82525050565b60006106a18383610686565b60208301905092915050565b6000602082019050919050565b6106c381610666565b6106cd8184610671565b92506106d88261067c565b8060005b838110156107095781516106f08782610695565b96506106fb836106ad565b9250506001810190506106dc565b505050505050565b6000610140820190506107276000830187610597565b6107346040830186610607565b61074160c0830185610597565b61074f6101008301846106ba565b95945050505050565b60008115159050919050565b61076d81610758565b811461077857600080fd5b50565b60008151905061078a81610764565b92915050565b6000602082840312156107a6576107a561044a565b5b60006107b48482850161077b565b91505092915050565b600081905092915050565b50565b60006107d86000836107bd565b91506107e3826107c8565b600082019050919050565b60006107f9826107cb565b9150819050919050565b8082525050565b600060208201905061081f6000830184610803565b92915050565b600081519050610834816104a2565b92915050565b6000602082840312156108505761084f61044a565b5b600061085e84828501610825565b91505092915050565b600082825260208201905092915050565b7f496e76616c696420616d6f756e74000000000000000000000000000000000000600082015250565b60006108ae600e83610867565b91506108b982610878565b602082019050919050565b600060208201905081810360008301526108dd816108a1565b9050919050565b600081905092915050565b6108f881610498565b82525050565b600061090a83836108ef565b60208301905092915050565b61091f81610666565b61092981846108e4565b92506109348261067c565b8060005b8381101561096557815161094c87826108fe565b9650610957836106ad565b925050600181019050610938565b505050505050565b60006040820190506109826000830184610916565b92915050565b61099181610498565b82525050565b60006040820190506109ac6000830185610803565b6109b96020830184610988565b9392505050565b60006040820190506109d56000830185610537565b6109e26020830184610537565b9392505050565b7f4e487b7100000000000000000000000000000000000000000000000000000000600052601160045260246000fd5b6000610a2382610498565b9150610a2e83610498565b9250828201905080821115610a4657610a456109e9565b5b9291505056fea2646970667358221220c2fe2d356342d7e1c48035cdd0a06e466314f0650a60a148ebd02b56981ae44e64736f6c634300081c00336080604052348015600f57600080fd5b5061063c8061001f6000396000f3fe608060405234801561001057600080fd5b506004361061002b5760003560e01c8063f5c9d69e14610030575b600080fd5b61004a60048036038101906100459190610567565b610060565b60405161005791906105eb565b60405180910390f35b60006104dd565b7f30644e72e131a029b85045b68181585d2833e84879b9709143e1f593f00000018110610098576000805260206000f35b50565b600060405183815284602082015285604082015260408160608360076107d05a03fa9150816100ce576000805260206000f35b825160408201526020830151606082015260408360808360066107d05a03fa9150816100fe576000805260206000f35b505050505050565b600060808601600087017f2161df245d35882a79b5663b201e01788fe7cb713a93b8d9efa969e9fa0be28881527f2eda01cd2d2d027c771ef4c2dfbdd58a8577cb5909add4e2999d2edcb28c662960208201526101a960008801357f1074c2e86726e3d0ade2d2eca4a901b0b88f006b07baee246e3318ada2eab3527f2016f15d814561556bd0f1bf052cad61583e5e3ad75ea2891b3f23bb524dac4a8461009b565b6101f960208801357f08e2eb736627e6e2cfb6d76ae06ae533ee60964663d1c4e9c57f55c5af4962707f06db601aa7ab05ced7a252bd37288ac8c7a0d30d9d7f56f939cfa857650b825b8461009b565b833582527f30644e72e131a029b85045b68181585d97816a916871ca8d3c208c16d87cfd4760208501357f30644e72e131a029b85045b68181585d97816a916871ca8d3c208c16d87cfd4703066020830152843560408301526020850135606083015260408501356080830152606085013560a08301527f141edc2469ff47d4b3a3d46bda53726b47c7e3d026cd4cf12ef062fa43fb798960c08301527f04e8304b9358fae75c8c9766444c71f810f1bf9fdd17dad06b3cc46c4f3a4c8260e08301527f062431605cb27da4096912217a3aed9d86afd80bd4d80e58309af6eec7a6ab1f6101008301527f0496a76829a9f138d65642b0194a5d3943e4d4650fb79eec578039a16b49d0cb6101208301527f16ae1c3a6b52a3747572b50af043a0cfe42441c4476bff80895373913cd220ad6101408301527f02e9fbbd3e486bde62feea6e2239dc8de671ac8705eaf9e69deeb17ffbc42d03610160830152600088015161018083015260206000018801516101a08301527f198e9393920d483a7260bfb731fb5d25f1aa493335a9e71297e485b7aef312c26101c08301527f1800deef121f1e76426a00665e5c4479674322d4f75edadd46debd5cd992f6ed6101e08301527f090689d0585ff075ec9e99ad690c3395bc4b313370b38ef355acdadcd122975b6102008301527f12c85ea5db8c6deb4aab71808dcb408fe3d1e7690c43d37b4ce6cc0166fa7daa610220830152853561024083015260208601356102608301527f142d509ed2d8a2971ac0891b2797d5d5e9b6ce45f6852417011ca82cd53d85036102808301527f0bb16dec8c33fa096ae35c6cefea7bd45cb20fd6b9f28997a2abea1a17e9ecd46102a08301527f0f3cf88d8e6c4ba2e8a79b3a678d08a2efdb5be1d4be565d881fe244542be50e6102c08301527f014e9fc232fa98b5a14baea077102a9a3e5653d9e39ccadf3dc3c2c412bdcc596102e08301526020826103008460086107d05a03fa82518116935050505095945050505050565b60405161038081016040526104f56000840135610067565b6105026020840135610067565b61050f818486888a610106565b8060005260206000f35b600080fd5b600080fd5b60008190508260206002028201111561053f5761053e61051e565b5b92915050565b6000819050826040600202820111156105615761056061051e565b5b92915050565b600080600080610140858703121561058257610581610519565b5b600061059087828801610523565b94505060406105a187828801610545565b93505060c06105b287828801610523565b9250506101006105c487828801610523565b91505092959194509250565b60008115159050919050565b6105e5816105d0565b82525050565b600060208201905061060060008301846105dc565b9291505056fea264697066735822122050a8a7421ff5c68762e0ebf9b8de98e717f1fe8864efb2adca3601062c465bac64736f6c634300081c0033","opcodes":"PUSH1 0x80 PUSH1 0x40 MSTORE CALLVALUE DUP1 ISZERO PUSH1 0xF JUMPI PUSH1 0x0 DUP1 REVERT JUMPDEST POP PUSH1 0x0 PUSH1 0x5 DUP2 SWAP1 SSTORE POP PUSH1 0x40 MLOAD PUSH1 0x22 SWAP1 PUSH1 0x82 JUMP JUMPDEST PUSH1 0x40 MLOAD DUP1 SWAP2 SUB SWAP1 PUSH1 0x0 CREATE DUP1 ISZERO DUP1 ISZERO PUSH1 0x3D JUMPI RETURNDATASIZE PUSH1 0x0 DUP1 RETURNDATACOPY RETURNDATASIZE PUSH1 0x0 REVERT JUMPDEST POP PUSH1 0x6 PUSH1 0x0 PUSH2 0x100 EXP DUP2 SLOAD DUP2 PUSH20 0xFFFFFFFFFFFFFFFFFFFFFFFFFFFFFFFFFFFFFFFF MUL NOT AND SWAP1 DUP4 PUSH20 0xFFFFFFFFFFFFFFFFFFFFFFFFFFFFFFFFFFFFFFFF AND MUL OR SWAP1 SSTORE POP PUSH1 0x8F JUMP JUMPDEST PUSH2 0x65B DUP1 PUSH2 0xB20 DUP4 CODECOPY ADD SWAP1 JUMP JUMPDEST PUSH2 0xA82 DUP1 PUSH2 0x9E PUSH1 0x0 CODECOPY PUSH1 0x0 RETURN INVALID PUSH1 0x80 PUSH1 0x40 MSTORE PUSH1 0x4 CALLDATASIZE LT PUSH2 0x34 JUMPI PUSH1 0x0 CALLDATALOAD PUSH1 0xE0 SHR DUP1 PUSH4 0x343166C EQ PUSH2 0x39 JUMPI DUP1 PUSH4 0xAEBAD2E7 EQ PUSH2 0x62 JUMPI DUP1 PUSH4 0xB6B55F25 EQ PUSH2 0x8D JUMPI JUMPDEST PUSH1 0x0 DUP1 REVERT JUMPDEST CALLVALUE DUP1 ISZERO PUSH2 0x45 JUMPI PUSH1 0x0 DUP1 REVERT JUMPDEST POP PUSH2 0x60 PUSH1 0x4 DUP1 CALLDATASIZE SUB DUP2 ADD SWAP1 PUSH2 0x5B SWAP2 SWAP1 PUSH2 0x4CE JUMP JUMPDEST PUSH2 0xA9 JUMP JUMPDEST STOP JUMPDEST CALLVALUE DUP1 ISZERO PUSH2 0x6E JUMPI PUSH1 0x0 DUP1 REVERT JUMPDEST POP PUSH2 0x77 PUSH2 0x219 JUMP JUMPDEST PUSH1 0x40 MLOAD PUSH2 0x84 SWAP2 SWAP1 PUSH2 0x546 JUMP JUMPDEST PUSH1 0x40 MLOAD DUP1 SWAP2 SUB SWAP1 RETURN JUMPDEST PUSH2 0xA7 PUSH1 0x4 DUP1 CALLDATASIZE SUB DUP2 ADD SWAP1 PUSH2 0xA2 SWAP2 SWAP1 PUSH2 0x561 JUMP JUMPDEST PUSH2 0x299 JUMP JUMPDEST STOP JUMPDEST PUSH1 0x0 PUSH1 0x6 PUSH1 0x0 SWAP1 SLOAD SWAP1 PUSH2 0x100 EXP SWAP1 DIV PUSH20 0xFFFFFFFFFFFFFFFFFFFFFFFFFFFFFFFFFFFFFFFF AND PUSH20 0xFFFFFFFFFFFFFFFFFFFFFFFFFFFFFFFFFFFFFFFF AND PUSH4 0xF5C9D69E DUP7 DUP7 DUP7 PUSH1 0x40 MLOAD DUP1 PUSH1 0x40 ADD PUSH1 0x40 MSTORE DUP1 PUSH2 0xFF PUSH2 0x219 JUMP JUMPDEST DUP2 MSTORE PUSH1 0x20 ADD DUP9 DUP2 MSTORE POP PUSH1 0x40 MLOAD DUP6 PUSH4 0xFFFFFFFF AND PUSH1 0xE0 SHL DUP2 MSTORE PUSH1 0x4 ADD PUSH2 0x127 SWAP5 SWAP4 SWAP3 SWAP2 SWAP1 PUSH2 0x711 JUMP JUMPDEST PUSH1 0x20 PUSH1 0x40 MLOAD DUP1 DUP4 SUB DUP2 DUP7 GAS STATICCALL ISZERO DUP1 ISZERO PUSH2 0x144 JUMPI RETURNDATASIZE PUSH1 0x0 DUP1 RETURNDATACOPY RETURNDATASIZE PUSH1 0x0 REVERT JUMPDEST POP POP POP POP PUSH1 0x40 MLOAD RETURNDATASIZE PUSH1 0x1F NOT PUSH1 0x1F DUP3 ADD AND DUP3 ADD DUP1 PUSH1 0x40 MSTORE POP DUP2 ADD SWAP1 PUSH2 0x168 SWAP2 SWAP1 PUSH2 0x790 JUMP JUMPDEST SWAP1 POP DUP1 PUSH2 0x1A1 JUMPI PUSH1 0x40 MLOAD PUSH32 0x9BDE33900000000000000000000000000000000000000000000000000000000 DUP2 MSTORE PUSH1 0x4 ADD PUSH1 0x40 MLOAD DUP1 SWAP2 SUB SWAP1 REVERT JUMPDEST CALLER PUSH20 0xFFFFFFFFFFFFFFFFFFFFFFFFFFFFFFFFFFFFFFFF AND PUSH8 0x6F05B59D3B20000 PUSH1 0x40 MLOAD PUSH2 0x1CD SWAP1 PUSH2 0x7EE JUMP JUMPDEST PUSH1 0x0 PUSH1 0x40 MLOAD DUP1 DUP4 SUB DUP2 DUP6 DUP8 GAS CALL SWAP3 POP POP POP RETURNDATASIZE DUP1 PUSH1 0x0 DUP2 EQ PUSH2 0x20A JUMPI PUSH1 0x40 MLOAD SWAP2 POP PUSH1 0x1F NOT PUSH1 0x3F RETURNDATASIZE ADD AND DUP3 ADD PUSH1 0x40 MSTORE RETURNDATASIZE DUP3 MSTORE RETURNDATASIZE PUSH1 0x0 PUSH1 0x20 DUP5 ADD RETURNDATACOPY PUSH2 0x20F JUMP JUMPDEST PUSH1 0x60 SWAP2 POP JUMPDEST POP POP POP POP POP POP POP POP JUMP JUMPDEST PUSH1 0x0 PUSH20 0x0 PUSH4 0xF47CBC3A PUSH1 0x0 PUSH1 0x40 MLOAD DUP3 PUSH4 0xFFFFFFFF AND PUSH1 0xE0 SHL DUP2 MSTORE PUSH1 0x4 ADD PUSH2 0x253 SWAP2 SWAP1 PUSH2 0x80A JUMP JUMPDEST PUSH1 0x20 PUSH1 0x40 MLOAD DUP1 DUP4 SUB DUP2 DUP7 GAS DELEGATECALL ISZERO DUP1 ISZERO PUSH2 0x270 JUMPI RETURNDATASIZE PUSH1 0x0 DUP1 RETURNDATACOPY RETURNDATASIZE PUSH1 0x0 REVERT JUMPDEST POP POP POP POP PUSH1 0x40 MLOAD RETURNDATASIZE PUSH1 0x1F NOT PUSH1 0x1F DUP3 ADD AND DUP3 ADD DUP1 PUSH1 0x40 MSTORE POP DUP2 ADD SWAP1 PUSH2 0x294 SWAP2 SWAP1 PUSH2 0x83A JUMP JUMPDEST SWAP1 POP SWAP1 JUMP JUMPDEST PUSH8 0x6F05B59D3B20000 CALLVALUE EQ PUSH2 0x2E3 JUMPI PUSH1 0x40 MLOAD PUSH32 0x8C379A000000000000000000000000000000000000000000000000000000000 DUP2 MSTORE PUSH1 0x4 ADD PUSH2 0x2DA SWAP1 PUSH2 0x8C4 JUMP JUMPDEST PUSH1 0x40 MLOAD DUP1 SWAP2 SUB SWAP1 REVERT JUMPDEST PUSH1 0x0 PUSH20 0x0 PUSH4 0x561558FE PUSH1 0x40 MLOAD DUP1 PUSH1 0x40 ADD PUSH1 0x40 MSTORE DUP1 PUSH1 0x5 SLOAD DUP2 MSTORE PUSH1 0x20 ADD DUP6 DUP2 MSTORE POP PUSH1 0x40 MLOAD DUP3 PUSH4 0xFFFFFFFF AND PUSH1 0xE0 SHL DUP2 MSTORE PUSH1 0x4 ADD PUSH2 0x332 SWAP2 SWAP1 PUSH2 0x96D JUMP JUMPDEST PUSH1 0x20 PUSH1 0x40 MLOAD DUP1 DUP4 SUB DUP2 DUP7 GAS DELEGATECALL ISZERO DUP1 ISZERO PUSH2 0x34F JUMPI RETURNDATASIZE PUSH1 0x0 DUP1 RETURNDATACOPY RETURNDATASIZE PUSH1 0x0 REVERT JUMPDEST POP POP POP POP PUSH1 0x40 MLOAD RETURNDATASIZE PUSH1 0x1F NOT PUSH1 0x1F DUP3 ADD AND DUP3 ADD DUP1 PUSH1 0x40 MSTORE POP DUP2 ADD SWAP1 PUSH2 0x373 SWAP2 SWAP1 PUSH2 0x83A JUMP JUMPDEST SWAP1 POP PUSH20 0x0 PUSH4 0x2F854971 PUSH1 0x0 DUP4 PUSH1 0x40 MLOAD DUP4 PUSH4 0xFFFFFFFF AND PUSH1 0xE0 SHL DUP2 MSTORE PUSH1 0x4 ADD PUSH2 0x3AF SWAP3 SWAP2 SWAP1 PUSH2 0x997 JUMP JUMPDEST PUSH1 0x20 PUSH1 0x40 MLOAD DUP1 DUP4 SUB DUP2 DUP7 GAS DELEGATECALL ISZERO DUP1 ISZERO PUSH2 0x3CC JUMPI RETURNDATASIZE PUSH1 0x0 DUP1 RETURNDATACOPY RETURNDATASIZE PUSH1 0x0 REVERT JUMPDEST POP POP POP POP PUSH1 0x40 MLOAD RETURNDATASIZE PUSH1 0x1F NOT PUSH1 0x1F DUP3 ADD AND DUP3 ADD DUP1 PUSH1 0x40 MSTORE POP DUP2 ADD SWAP1 PUSH2 0x3F0 SWAP2 SWAP1 PUSH2 0x83A JUMP JUMPDEST POP PUSH32 0xA3AF609BF46297028CE551832669030F9EFFEF2B02606D02CBBCC40FE6B47C55 PUSH1 0x5 SLOAD DUP4 PUSH1 0x40 MLOAD PUSH2 0x424 SWAP3 SWAP2 SWAP1 PUSH2 0x9C0 JUMP JUMPDEST PUSH1 0x40 MLOAD DUP1 SWAP2 SUB SWAP1 LOG1 PUSH1 0x1 PUSH1 0x5 PUSH1 0x0 DUP3 DUP3 SLOAD PUSH2 0x43F SWAP2 SWAP1 PUSH2 0xA18 JUMP JUMPDEST SWAP3 POP POP DUP2 SWAP1 SSTORE POP POP POP JUMP JUMPDEST PUSH1 0x0 DUP1 REVERT JUMPDEST PUSH1 0x0 DUP1 REVERT JUMPDEST PUSH1 0x0 DUP2 SWAP1 POP DUP3 PUSH1 0x20 PUSH1 0x2 MUL DUP3 ADD GT ISZERO PUSH2 0x470 JUMPI PUSH2 0x46F PUSH2 0x44F JUMP JUMPDEST JUMPDEST SWAP3 SWAP2 POP POP JUMP JUMPDEST PUSH1 0x0 DUP2 SWAP1 POP DUP3 PUSH1 0x40 PUSH1 0x2 MUL DUP3 ADD GT ISZERO PUSH2 0x492 JUMPI PUSH2 0x491 PUSH2 0x44F JUMP JUMPDEST JUMPDEST SWAP3 SWAP2 POP POP JUMP JUMPDEST PUSH1 0x0 DUP2 SWAP1 POP SWAP2 SWAP1 POP JUMP JUMPDEST PUSH2 0x4AB DUP2 PUSH2 0x498 JUMP JUMPDEST DUP2 EQ PUSH2 0x4B6 JUMPI PUSH1 0x0 DUP1 REVERT JUMPDEST POP JUMP JUMPDEST PUSH1 0x0 DUP2 CALLDATALOAD SWAP1 POP PUSH2 0x4C8 DUP2 PUSH2 0x4A2 JUMP JUMPDEST SWAP3 SWAP2 POP POP JUMP JUMPDEST PUSH1 0x0 DUP1 PUSH1 0x0 DUP1 PUSH2 0x120 DUP6 DUP8 SUB SLT ISZERO PUSH2 0x4E9 JUMPI PUSH2 0x4E8 PUSH2 0x44A JUMP JUMPDEST JUMPDEST PUSH1 0x0 PUSH2 0x4F7 DUP8 DUP3 DUP9 ADD PUSH2 0x454 JUMP JUMPDEST SWAP5 POP POP PUSH1 0x40 PUSH2 0x508 DUP8 DUP3 DUP9 ADD PUSH2 0x476 JUMP JUMPDEST SWAP4 POP POP PUSH1 0xC0 PUSH2 0x519 DUP8 DUP3 DUP9 ADD PUSH2 0x454 JUMP JUMPDEST SWAP3 POP POP PUSH2 0x100 PUSH2 0x52B DUP8 DUP3 DUP9 ADD PUSH2 0x4B9 JUMP JUMPDEST SWAP2 POP POP SWAP3 SWAP6 SWAP2 SWAP5 POP SWAP3 POP JUMP JUMPDEST PUSH2 0x540 DUP2 PUSH2 0x498 JUMP JUMPDEST DUP3 MSTORE POP POP JUMP JUMPDEST PUSH1 0x0 PUSH1 0x20 DUP3 ADD SWAP1 POP PUSH2 0x55B PUSH1 0x0 DUP4 ADD DUP5 PUSH2 0x537 JUMP JUMPDEST SWAP3 SWAP2 POP POP JUMP JUMPDEST PUSH1 0x0 PUSH1 0x20 DUP3 DUP5 SUB SLT ISZERO PUSH2 0x577 JUMPI PUSH2 0x576 PUSH2 0x44A JUMP JUMPDEST JUMPDEST PUSH1 0x0 PUSH2 0x585 DUP5 DUP3 DUP6 ADD PUSH2 0x4B9 JUMP JUMPDEST SWAP2 POP POP SWAP3 SWAP2 POP POP JUMP JUMPDEST DUP3 DUP2 DUP4 CALLDATACOPY POP POP POP JUMP JUMPDEST PUSH2 0x5A3 PUSH1 0x40 DUP4 DUP4 PUSH2 0x58E JUMP JUMPDEST POP POP JUMP JUMPDEST PUSH1 0x0 PUSH1 0x2 SWAP1 POP SWAP2 SWAP1 POP JUMP JUMPDEST PUSH1 0x0 DUP2 SWAP1 POP SWAP3 SWAP2 POP POP JUMP JUMPDEST PUSH1 0x0 DUP2 SWAP1 POP SWAP2 SWAP1 POP JUMP JUMPDEST PUSH2 0x5D3 PUSH1 0x40 DUP4 DUP4 PUSH2 0x58E JUMP JUMPDEST POP POP JUMP JUMPDEST PUSH1 0x0 PUSH2 0x5E3 DUP4 DUP4 PUSH2 0x5C7 JUMP JUMPDEST PUSH1 0x40 DUP4 ADD SWAP1 POP SWAP3 SWAP2 POP POP JUMP JUMPDEST PUSH1 0x0 DUP3 SWAP1 POP SWAP3 SWAP2 POP POP JUMP JUMPDEST PUSH1 0x0 PUSH1 0x40 DUP3 ADD SWAP1 POP SWAP2 SWAP1 POP JUMP JUMPDEST PUSH2 0x610 DUP2 PUSH2 0x5A7 JUMP JUMPDEST PUSH2 0x61A DUP2 DUP5 PUSH2 0x5B2 JUMP JUMPDEST SWAP3 POP PUSH2 0x625 DUP3 PUSH2 0x5BD JUMP JUMPDEST DUP1 PUSH1 0x0 JUMPDEST DUP4 DUP2 LT ISZERO PUSH2 0x65E JUMPI PUSH2 0x63B DUP3 DUP5 PUSH2 0x5EF JUMP JUMPDEST PUSH2 0x645 DUP8 DUP3 PUSH2 0x5D7 JUMP JUMPDEST SWAP7 POP PUSH2 0x650 DUP4 PUSH2 0x5FA JUMP JUMPDEST SWAP3 POP POP PUSH1 0x1 DUP2 ADD SWAP1 POP PUSH2 0x629 JUMP JUMPDEST POP POP POP POP POP POP JUMP JUMPDEST PUSH1 0x0 PUSH1 0x2 SWAP1 POP SWAP2 SWAP1 POP JUMP JUMPDEST PUSH1 0x0 DUP2 SWAP1 POP SWAP3 SWAP2 POP POP JUMP JUMPDEST PUSH1 0x0 DUP2 SWAP1 POP SWAP2 SWAP1 POP JUMP JUMPDEST PUSH2 0x68F DUP2 PUSH2 0x498 JUMP JUMPDEST DUP3 MSTORE POP POP JUMP JUMPDEST PUSH1 0x0 PUSH2 0x6A1 DUP4 DUP4 PUSH2 0x686 JUMP JUMPDEST PUSH1 0x20 DUP4 ADD SWAP1 POP SWAP3 SWAP2 POP POP JUMP JUMPDEST PUSH1 0x0 PUSH1 0x20 DUP3 ADD SWAP1 POP SWAP2 SWAP1 POP JUMP JUMPDEST PUSH2 0x6C3 DUP2 PUSH2 0x666 JUMP JUMPDEST PUSH2 0x6CD DUP2 DUP5 PUSH2 0x671 JUMP JUMPDEST SWAP3 POP PUSH2 0x6D8 DUP3 PUSH2 0x67C JUMP JUMPDEST DUP1 PUSH1 0x0 JUMPDEST DUP4 DUP2 LT ISZERO PUSH2 0x709 JUMPI DUP2 MLOAD PUSH2 0x6F0 DUP8 DUP3 PUSH2 0x695 JUMP JUMPDEST SWAP7 POP PUSH2 0x6FB DUP4 PUSH2 0x6AD JUMP JUMPDEST SWAP3 POP POP PUSH1 0x1 DUP2 ADD SWAP1 POP PUSH2 0x6DC JUMP JUMPDEST POP POP POP POP POP POP JUMP JUMPDEST PUSH1 0x0 PUSH2 0x140 DUP3 ADD SWAP1 POP PUSH2 0x727 PUSH1 0x0 DUP4 ADD DUP8 PUSH2 0x597 JUMP JUMPDEST PUSH2 0x734 PUSH1 0x40 DUP4 ADD DUP7 PUSH2 0x607 JUMP JUMPDEST PUSH2 0x741 PUSH1 0xC0 DUP4 ADD DUP6 PUSH2 0x597 JUMP JUMPDEST PUSH2 0x74F PUSH2 0x100 DUP4 ADD DUP5 PUSH2 0x6BA JUMP JUMPDEST SWAP6 SWAP5 POP POP POP POP POP JUMP JUMPDEST PUSH1 0x0 DUP2 ISZERO ISZERO SWAP1 POP SWAP2 SWAP1 POP JUMP JUMPDEST PUSH2 0x76D DUP2 PUSH2 0x758 JUMP JUMPDEST DUP2 EQ PUSH2 0x778 JUMPI PUSH1 0x0 DUP1 REVERT JUMPDEST POP JUMP JUMPDEST PUSH1 0x0 DUP2 MLOAD SWAP1 POP PUSH2 0x78A DUP2 PUSH2 0x764 JUMP JUMPDEST SWAP3 SWAP2 POP POP JUMP JUMPDEST PUSH1 0x0 PUSH1 0x20 DUP3 DUP5 SUB SLT ISZERO PUSH2 0x7A6 JUMPI PUSH2 0x7A5 PUSH2 0x44A JUMP JUMPDEST JUMPDEST PUSH1 0x0 PUSH2 0x7B4 DUP5 DUP3 DUP6 ADD PUSH2 0x77B JUMP JUMPDEST SWAP2 POP POP SWAP3 SWAP2 POP POP JUMP JUMPDEST PUSH1 0x0 DUP2 SWAP1 POP SWAP3 SWAP2 POP POP JUMP JUMPDEST POP JUMP JUMPDEST PUSH1 0x0 PUSH2 0x7D8 PUSH1 0x0 DUP4 PUSH2 0x7BD JUMP JUMPDEST SWAP2 POP PUSH2 0x7E3 DUP3 PUSH2 0x7C8 JUMP JUMPDEST PUSH1 0x0 DUP3 ADD SWAP1 POP SWAP2 SWAP1 POP JUMP JUMPDEST PUSH1 0x0 PUSH2 0x7F9 DUP3 PUSH2 0x7CB JUMP JUMPDEST SWAP2 POP DUP2 SWAP1 POP SWAP2 SWAP1 POP JUMP JUMPDEST DUP1 DUP3 MSTORE POP POP JUMP JUMPDEST PUSH1 0x0 PUSH1 0x20 DUP3 ADD SWAP1 POP PUSH2 0x81F PUSH1 0x0 DUP4 ADD DUP5 PUSH2 0x803 JUMP JUMPDEST SWAP3 SWAP2 POP POP JUMP JUMPDEST PUSH1 0x0 DUP2 MLOAD SWAP1 POP PUSH2 0x834 DUP2 PUSH2 0x4A2 JUMP JUMPDEST SWAP3 SWAP2 POP POP JUMP JUMPDEST PUSH1 0x0 PUSH1 0x20 DUP3 DUP5 SUB SLT ISZERO PUSH2 0x850 JUMPI PUSH2 0x84F PUSH2 0x44A JUMP JUMPDEST JUMPDEST PUSH1 0x0 PUSH2 0x85E DUP5 DUP3 DUP6 ADD PUSH2 0x825 JUMP JUMPDEST SWAP2 POP POP SWAP3 SWAP2 POP POP JUMP JUMPDEST PUSH1 0x0 DUP3 DUP3 MSTORE PUSH1 0x20 DUP3 ADD SWAP1 POP SWAP3 SWAP2 POP POP JUMP JUMPDEST PUSH32 0x496E76616C696420616D6F756E74000000000000000000000000000000000000 PUSH1 0x0 DUP3 ADD MSTORE POP JUMP JUMPDEST PUSH1 0x0 PUSH2 0x8AE PUSH1 0xE DUP4 PUSH2 0x867 JUMP JUMPDEST SWAP2 POP PUSH2 0x8B9 DUP3 PUSH2 0x878 JUMP JUMPDEST PUSH1 0x20 DUP3 ADD SWAP1 POP SWAP2 SWAP1 POP JUMP JUMPDEST PUSH1 0x0 PUSH1 0x20 DUP3 ADD SWAP1 POP DUP2 DUP2 SUB PUSH1 0x0 DUP4 ADD MSTORE PUSH2 0x8DD DUP2 PUSH2 0x8A1 JUMP JUMPDEST SWAP1 POP SWAP2 SWAP1 POP JUMP JUMPDEST PUSH1 0x0 DUP2 SWAP1 POP SWAP3 SWAP2 POP POP JUMP JUMPDEST PUSH2 0x8F8 DUP2 PUSH2 0x498 JUMP JUMPDEST DUP3 MSTORE POP POP JUMP JUMPDEST PUSH1 0x0 PUSH2 0x90A DUP4 DUP4 PUSH2 0x8EF JUMP JUMPDEST PUSH1 0x20 DUP4 ADD SWAP1 POP SWAP3 SWAP2 POP POP JUMP JUMPDEST PUSH2 0x91F DUP2 PUSH2 0x666 JUMP JUMPDEST PUSH2 0x929 DUP2 DUP5 PUSH2 0x8E4 JUMP JUMPDEST SWAP3 POP PUSH2 0x934 DUP3 PUSH2 0x67C JUMP JUMPDEST DUP1 PUSH1 0x0 JUMPDEST DUP4 DUP2 LT ISZERO PUSH2 0x965 JUMPI DUP2 MLOAD PUSH2 0x94C DUP8 DUP3 PUSH2 0x8FE JUMP JUMPDEST SWAP7 POP PUSH2 0x957 DUP4 PUSH2 0x6AD JUMP JUMPDEST SWAP3 POP POP PUSH1 0x1 DUP2 ADD SWAP1 POP PUSH2 0x938 JUMP JUMPDEST POP POP POP POP POP POP JUMP JUMPDEST PUSH1 0x0 PUSH1 0x40 DUP3 ADD SWAP1 POP PUSH2 0x982 PUSH1 0x0 DUP4 ADD DUP5 PUSH2 0x916 JUMP JUMPDEST SWAP3 SWAP2 POP POP JUMP JUMPDEST PUSH2 0x991 DUP2 PUSH2 0x498 JUMP JUMPDEST DUP3 MSTORE POP POP JUMP JUMPDEST PUSH1 0x0 PUSH1 0x40 DUP3 ADD SWAP1 POP PUSH2 0x9AC PUSH1 0x0 DUP4 ADD DUP6 PUSH2 0x803 JUMP JUMPDEST PUSH2 0x9B9 PUSH1 0x20 DUP4 ADD DUP5 PUSH2 0x988 JUMP JUMPDEST SWAP4 SWAP3 POP POP POP JUMP JUMPDEST PUSH1 0x0 PUSH1 0x40 DUP3 ADD SWAP1 POP PUSH2 0x9D5 PUSH1 0x0 DUP4 ADD DUP6 PUSH2 0x537 JUMP JUMPDEST PUSH2 0x9E2 PUSH1 0x20 DUP4 ADD DUP5 PUSH2 0x537 JUMP JUMPDEST SWAP4 SWAP3 POP POP POP JUMP JUMPDEST PUSH32 0x4E487B7100000000000000000000000000000000000000000000000000000000 PUSH1 0x0 MSTORE PUSH1 0x11 PUSH1 0x4 MSTORE PUSH1 0x24 PUSH1 0x0 REVERT JUMPDEST PUSH1 0x0 PUSH2 0xA23 DUP3 PUSH2 0x498 JUMP JUMPDEST SWAP2 POP PUSH2 0xA2E DUP4 PUSH2 0x498 JUMP JUMPDEST SWAP3 POP DUP3 DUP3 ADD SWAP1 POP DUP1 DUP3 GT ISZERO PUSH2 0xA46 JUMPI PUSH2 0xA45 PUSH2 0x9E9 JUMP JUMPDEST JUMPDEST SWAP3 SWAP2 POP POP JUMP INVALID LOG2 PUSH5 0x6970667358 0x22 SLT KECCAK256 0xC2 INVALID 0x2D CALLDATALOAD PUSH4 0x42D7E1C4 DUP1 CALLDATALOAD 0xCD 0xD0 LOG0 PUSH15 0x466314F0650A60A148EBD02B56981A 0xE4 0x4E PUSH5 0x736F6C6343 STOP ADDMOD SHR STOP CALLER PUSH1 0x80 PUSH1 0x40 MSTORE CALLVALUE DUP1 ISZERO PUSH1 0xF JUMPI PUSH1 0x0 DUP1 REVERT JUMPDEST POP PUSH2 0x63C DUP1 PUSH2 0x1F PUSH1 0x0 CODECOPY PUSH1 0x0 RETURN INVALID PUSH1 0x80 PUSH1 0x40 MSTORE CALLVALUE DUP1 ISZERO PUSH2 0x10 JUMPI PUSH1 0x0 DUP1 REVERT JUMPDEST POP PUSH1 0x4 CALLDATASIZE LT PUSH2 0x2B JUMPI PUSH1 0x0 CALLDATALOAD PUSH1 0xE0 SHR DUP1 PUSH4 0xF5C9D69E EQ PUSH2 0x30 JUMPI JUMPDEST PUSH1 0x0 DUP1 REVERT JUMPDEST PUSH2 0x4A PUSH1 0x4 DUP1 CALLDATASIZE SUB DUP2 ADD SWAP1 PUSH2 0x45 SWAP2 SWAP1 PUSH2 0x567 JUMP JUMPDEST PUSH2 0x60 JUMP JUMPDEST PUSH1 0x40 MLOAD PUSH2 0x57 SWAP2 SWAP1 PUSH2 0x5EB JUMP JUMPDEST PUSH1 0x40 MLOAD DUP1 SWAP2 SUB SWAP1 RETURN JUMPDEST PUSH1 0x0 PUSH2 0x4DD JUMP JUMPDEST PUSH32 0x30644E72E131A029B85045B68181585D2833E84879B9709143E1F593F0000001 DUP2 LT PUSH2 0x98 JUMPI PUSH1 0x0 DUP1 MSTORE PUSH1 0x20 PUSH1 0x0 RETURN JUMPDEST POP JUMP JUMPDEST PUSH1 0x0 PUSH1 0x40 MLOAD DUP4 DUP2 MSTORE DUP5 PUSH1 0x20 DUP3 ADD MSTORE DUP6 PUSH1 0x40 DUP3 ADD MSTORE PUSH1 0x40 DUP2 PUSH1 0x60 DUP4 PUSH1 0x7 PUSH2 0x7D0 GAS SUB STATICCALL SWAP2 POP DUP2 PUSH2 0xCE JUMPI PUSH1 0x0 DUP1 MSTORE PUSH1 0x20 PUSH1 0x0 RETURN JUMPDEST DUP3 MLOAD PUSH1 0x40 DUP3 ADD MSTORE PUSH1 0x20 DUP4 ADD MLOAD PUSH1 0x60 DUP3 ADD MSTORE PUSH1 0x40 DUP4 PUSH1 0x80 DUP4 PUSH1 0x6 PUSH2 0x7D0 GAS SUB STATICCALL SWAP2 POP DUP2 PUSH2 0xFE JUMPI PUSH1 0x0 DUP1 MSTORE PUSH1 0x20 PUSH1 0x0 RETURN JUMPDEST POP POP POP POP POP POP JUMP JUMPDEST PUSH1 0x0 PUSH1 0x80 DUP7 ADD PUSH1 0x0 DUP8 ADD PUSH32 0x2161DF245D35882A79B5663B201E01788FE7CB713A93B8D9EFA969E9FA0BE288 DUP2 MSTORE PUSH32 0x2EDA01CD2D2D027C771EF4C2DFBDD58A8577CB5909ADD4E2999D2EDCB28C6629 PUSH1 0x20 DUP3 ADD MSTORE PUSH2 0x1A9 PUSH1 0x0 DUP9 ADD CALLDATALOAD PUSH32 0x1074C2E86726E3D0ADE2D2ECA4A901B0B88F006B07BAEE246E3318ADA2EAB352 PUSH32 0x2016F15D814561556BD0F1BF052CAD61583E5E3AD75EA2891B3F23BB524DAC4A DUP5 PUSH2 0x9B JUMP JUMPDEST PUSH2 0x1F9 PUSH1 0x20 DUP9 ADD CALLDATALOAD PUSH32 0x8E2EB736627E6E2CFB6D76AE06AE533EE60964663D1C4E9C57F55C5AF496270 PUSH32 0x6DB601AA7AB05CED7A252BD37288AC8C7A0D30D9D7F56F939CFA857650B825B DUP5 PUSH2 0x9B JUMP JUMPDEST DUP4 CALLDATALOAD DUP3 MSTORE PUSH32 0x30644E72E131A029B85045B68181585D97816A916871CA8D3C208C16D87CFD47 PUSH1 0x20 DUP6 ADD CALLDATALOAD PUSH32 0x30644E72E131A029B85045B68181585D97816A916871CA8D3C208C16D87CFD47 SUB MOD PUSH1 0x20 DUP4 ADD MSTORE DUP5 CALLDATALOAD PUSH1 0x40 DUP4 ADD MSTORE PUSH1 0x20 DUP6 ADD CALLDATALOAD PUSH1 0x60 DUP4 ADD MSTORE PUSH1 0x40 DUP6 ADD CALLDATALOAD PUSH1 0x80 DUP4 ADD MSTORE PUSH1 0x60 DUP6 ADD CALLDATALOAD PUSH1 0xA0 DUP4 ADD MSTORE PUSH32 0x141EDC2469FF47D4B3A3D46BDA53726B47C7E3D026CD4CF12EF062FA43FB7989 PUSH1 0xC0 DUP4 ADD MSTORE PUSH32 0x4E8304B9358FAE75C8C9766444C71F810F1BF9FDD17DAD06B3CC46C4F3A4C82 PUSH1 0xE0 DUP4 ADD MSTORE PUSH32 0x62431605CB27DA4096912217A3AED9D86AFD80BD4D80E58309AF6EEC7A6AB1F PUSH2 0x100 DUP4 ADD MSTORE PUSH32 0x496A76829A9F138D65642B0194A5D3943E4D4650FB79EEC578039A16B49D0CB PUSH2 0x120 DUP4 ADD MSTORE PUSH32 0x16AE1C3A6B52A3747572B50AF043A0CFE42441C4476BFF80895373913CD220AD PUSH2 0x140 DUP4 ADD MSTORE PUSH32 0x2E9FBBD3E486BDE62FEEA6E2239DC8DE671AC8705EAF9E69DEEB17FFBC42D03 PUSH2 0x160 DUP4 ADD MSTORE PUSH1 0x0 DUP9 ADD MLOAD PUSH2 0x180 DUP4 ADD MSTORE PUSH1 0x20 PUSH1 0x0 ADD DUP9 ADD MLOAD PUSH2 0x1A0 DUP4 ADD MSTORE PUSH32 0x198E9393920D483A7260BFB731FB5D25F1AA493335A9E71297E485B7AEF312C2 PUSH2 0x1C0 DUP4 ADD MSTORE PUSH32 0x1800DEEF121F1E76426A00665E5C4479674322D4F75EDADD46DEBD5CD992F6ED PUSH2 0x1E0 DUP4 ADD MSTORE PUSH32 0x90689D0585FF075EC9E99AD690C3395BC4B313370B38EF355ACDADCD122975B PUSH2 0x200 DUP4 ADD MSTORE PUSH32 0x12C85EA5DB8C6DEB4AAB71808DCB408FE3D1E7690C43D37B4CE6CC0166FA7DAA PUSH2 0x220 DUP4 ADD MSTORE DUP6 CALLDATALOAD PUSH2 0x240 DUP4 ADD MSTORE PUSH1 0x20 DUP7 ADD CALLDATALOAD PUSH2 0x260 DUP4 ADD MSTORE PUSH32 0x142D509ED2D8A2971AC0891B2797D5D5E9B6CE45F6852417011CA82CD53D8503 PUSH2 0x280 DUP4 ADD MSTORE PUSH32 0xBB16DEC8C33FA096AE35C6CEFEA7BD45CB20FD6B9F28997A2ABEA1A17E9ECD4 PUSH2 0x2A0 DUP4 ADD MSTORE PUSH32 0xF3CF88D8E6C4BA2E8A79B3A678D08A2EFDB5BE1D4BE565D881FE244542BE50E PUSH2 0x2C0 DUP4 ADD MSTORE PUSH32 0x14E9FC232FA98B5A14BAEA077102A9A3E5653D9E39CCADF3DC3C2C412BDCC59 PUSH2 0x2E0 DUP4 ADD MSTORE PUSH1 0x20 DUP3 PUSH2 0x300 DUP5 PUSH1 0x8 PUSH2 0x7D0 GAS SUB STATICCALL DUP3 MLOAD DUP2 AND SWAP4 POP POP POP POP SWAP6 SWAP5 POP POP POP POP POP JUMP JUMPDEST PUSH1 0x40 MLOAD PUSH2 0x380 DUP2 ADD PUSH1 0x40 MSTORE PUSH2 0x4F5 PUSH1 0x0 DUP5 ADD CALLDATALOAD PUSH2 0x67 JUMP JUMPDEST PUSH2 0x502 PUSH1 0x20 DUP5 ADD CALLDATALOAD PUSH2 0x67 JUMP JUMPDEST PUSH2 0x50F DUP2 DUP5 DUP7 DUP9 DUP11 PUSH2 0x106 JUMP JUMPDEST DUP1 PUSH1 0x0 MSTORE PUSH1 0x20 PUSH1 0x0 RETURN JUMPDEST PUSH1 0x0 DUP1 REVERT JUMPDEST PUSH1 0x0 DUP1 REVERT JUMPDEST PUSH1 0x0 DUP2 SWAP1 POP DUP3 PUSH1 0x20 PUSH1 0x2 MUL DUP3 ADD GT ISZERO PUSH2 0x53F JUMPI PUSH2 0x53E PUSH2 0x51E JUMP JUMPDEST JUMPDEST SWAP3 SWAP2 POP POP JUMP JUMPDEST PUSH1 0x0 DUP2 SWAP1 POP DUP3 PUSH1 0x40 PUSH1 0x2 MUL DUP3 ADD GT ISZERO PUSH2 0x561 JUMPI PUSH2 0x560 PUSH2 0x51E JUMP JUMPDEST JUMPDEST SWAP3 SWAP2 POP POP JUMP JUMPDEST PUSH1 0x0 DUP1 PUSH1 0x0 DUP1 PUSH2 0x140 DUP6 DUP8 SUB SLT ISZERO PUSH2 0x582 JUMPI PUSH2 0x581 PUSH2 0x519 JUMP JUMPDEST JUMPDEST PUSH1 0x0 PUSH2 0x590 DUP8 DUP3 DUP9 ADD PUSH2 0x523 JUMP JUMPDEST SWAP5 POP POP PUSH1 0x40 PUSH2 0x5A1 DUP8 DUP3 DUP9 ADD PUSH2 0x545 JUMP JUMPDEST SWAP4 POP POP PUSH1 0xC0 PUSH2 0x5B2 DUP8 DUP3 DUP9 ADD PUSH2 0x523 JUMP JUMPDEST SWAP3 POP POP PUSH2 0x100 PUSH2 0x5C4 DUP8 DUP3 DUP9 ADD PUSH2 0x523 JUMP JUMPDEST SWAP2 POP POP SWAP3 SWAP6 SWAP2 SWAP5 POP SWAP3 POP JUMP JUMPDEST PUSH1 0x0 DUP2 ISZERO ISZERO SWAP1 POP SWAP2 SWAP1 POP JUMP JUMPDEST PUSH2 0x5E5 DUP2 PUSH2 0x5D0 JUMP JUMPDEST DUP3 MSTORE POP POP JUMP JUMPDEST PUSH1 0x0 PUSH1 0x20 DUP3 ADD SWAP1 POP PUSH2 0x600 PUSH1 0x0 DUP4 ADD DUP5 PUSH2 0x5DC JUMP JUMPDEST SWAP3 SWAP2 POP POP JUMP INVALID LOG2 PUSH5 0x6970667358 0x22 SLT KECCAK256 POP 0xA8 0xA7 TIMESTAMP 0x1F CREATE2 0xC6 DUP8 PUSH3 0xE0EBF9 0xB8 0xDE SWAP9 0xE7 OR CALL INVALID DUP9 PUSH5 0xEFB2ADCA36 ADD MOD 0x2C CHAINID JUMPDEST 0xAC PUSH5 0x736F6C6343 STOP ADDMOD SHR STOP CALLER "},"methodIdentifiers":{"deposit(uint256)":"b6b55f25","getNotesRoot()":"aebad2e7","withdraw(uint256[2],uint256[2][2],uint256[2],uint256)":"0343166c"}}}}}